{
  "contractName": "Vendor",
  "abi": [
    {
      "inputs": [
        {
          "internalType": "address",
          "name": "tokenAddress",
          "type": "address"
        }
      ],
      "stateMutability": "nonpayable",
      "type": "constructor"
    },
    {
      "anonymous": false,
      "inputs": [
        {
          "indexed": false,
          "internalType": "address",
          "name": "buyer",
          "type": "address"
        },
        {
          "indexed": false,
          "internalType": "uint256",
          "name": "ethAmount",
          "type": "uint256"
        },
        {
          "indexed": false,
          "internalType": "uint256",
          "name": "tokenAmount",
          "type": "uint256"
        }
      ],
      "name": "BuyTokens",
      "type": "event"
    },
    {
      "anonymous": false,
      "inputs": [
        {
          "indexed": true,
          "internalType": "address",
          "name": "previousOwner",
          "type": "address"
        },
        {
          "indexed": true,
          "internalType": "address",
          "name": "newOwner",
          "type": "address"
        }
      ],
      "name": "OwnershipTransferred",
      "type": "event"
    },
    {
      "inputs": [],
      "name": "owner",
      "outputs": [
        {
          "internalType": "address",
          "name": "",
          "type": "address"
        }
      ],
      "stateMutability": "view",
      "type": "function"
    },
    {
      "inputs": [],
      "name": "renounceOwnership",
      "outputs": [],
      "stateMutability": "nonpayable",
      "type": "function"
    },
    {
      "inputs": [],
      "name": "tokensPerEth",
      "outputs": [
        {
          "internalType": "uint256",
          "name": "",
          "type": "uint256"
        }
      ],
      "stateMutability": "view",
      "type": "function"
    },
    {
      "inputs": [
        {
          "internalType": "address",
          "name": "newOwner",
          "type": "address"
        }
      ],
      "name": "transferOwnership",
      "outputs": [],
      "stateMutability": "nonpayable",
      "type": "function"
    },
    {
      "inputs": [],
      "name": "buyTokens",
      "outputs": [
        {
          "internalType": "uint256",
          "name": "tokenAmount",
          "type": "uint256"
        }
      ],
      "stateMutability": "payable",
      "type": "function"
    },
    {
      "inputs": [],
      "name": "withdraw",
      "outputs": [],
      "stateMutability": "nonpayable",
      "type": "function"
    }
  ],
  "bytecode": "0x6080604052606460025534801561001557600080fd5b506040516107c13803806107c1833981016040819052610034916100bd565b61004461003f610069565b61006d565b600180546001600160a01b0319166001600160a01b03929092169190911790556100eb565b3390565b600080546001600160a01b038381166001600160a01b0319831681178455604051919092169283917f8be0079c531659141344cd1fd0a4f28419497f9722a3daafe3b4186f6b6457e09190a35050565b6000602082840312156100ce578081fd5b81516001600160a01b03811681146100e4578182fd5b9392505050565b6106c7806100fa6000396000f3fe6080604052600436106100555760003560e01c80633ccfd60b1461005a578063715018a6146100715780638da5cb5b14610086578063cbdd69b5146100b1578063d0febe4c146100d3578063f2fde38b146100db575b600080fd5b34801561006657600080fd5b5061006f6100fb565b005b34801561007d57600080fd5b5061006f610191565b34801561009257600080fd5b5061009b6101dc565b6040516100a891906104dd565b60405180910390f35b3480156100bd57600080fd5b506100c66101eb565b6040516100a8919061065d565b6100c66101f1565b3480156100e757600080fd5b5061006f6100f6366004610477565b6103b2565b610103610423565b6001600160a01b03166101146101dc565b6001600160a01b0316146101435760405162461bcd60e51b815260040161013a906105fb565b60405180910390fd5b47806101615760405162461bcd60e51b815260040161013a90610630565b60405133904780156108fc02916000818181858888f1935050505015801561018d573d6000803e3d6000fd5b5050565b610199610423565b6001600160a01b03166101aa6101dc565b6001600160a01b0316146101d05760405162461bcd60e51b815260040161013a906105fb565b6101da6000610427565b565b6000546001600160a01b031690565b60025481565b6000346001146102135760405162461bcd60e51b815260040161013a9061056c565b6000600254346102239190610666565b6001546040516370a0823160e01b81529192506000916001600160a01b03909116906370a08231906102599030906004016104dd565b60206040518083038186803b15801561027157600080fd5b505afa158015610285573d6000803e3d6000fd5b505050506040513d601f19601f820116820180604052508101906102a991906104c5565b9050818110156102cb5760405162461bcd60e51b815260040161013a90610630565b60015460405163a9059cbb60e01b81526000916001600160a01b03169063a9059cbb906102fe90339087906004016104f1565b602060405180830381600087803b15801561031857600080fd5b505af115801561032c573d6000803e3d6000fd5b505050506040513d601f19601f8201168201806040525081019061035091906104a5565b90508061036f5760405162461bcd60e51b815260040161013a9061052b565b7f0a37b72bb67eee30e09084cf386f8a17817c57f620c3ab95fb25d6a20356ec773334856040516103a29392919061050a565b60405180910390a1509091505090565b6103ba610423565b6001600160a01b03166103cb6101dc565b6001600160a01b0316146103f15760405162461bcd60e51b815260040161013a906105fb565b6001600160a01b0381166104175760405162461bcd60e51b815260040161013a906105b5565b61042081610427565b50565b3390565b600080546001600160a01b038381166001600160a01b0319831681178455604051919092169283917f8be0079c531659141344cd1fd0a4f28419497f9722a3daafe3b4186f6b6457e09190a35050565b600060208284031215610488578081fd5b81356001600160a01b038116811461049e578182fd5b9392505050565b6000602082840312156104b6578081fd5b8151801515811461049e578182fd5b6000602082840312156104d6578081fd5b5051919050565b6001600160a01b0391909116815260200190565b6001600160a01b03929092168252602082015260400190565b6001600160a01b039390931683526020830191909152604082015260600190565b60208082526021908201527f6572726f72207472616e7366657272696e6720746f6b656e20746f20757365726040820152601760f91b606082015260800190565b60208082526029908201527f596f75206e6565642061746c65737420312045544820746f2062757920736f6d60408201526832903a37b5b2b7399760b91b606082015260800190565b60208082526026908201527f4f776e61626c653a206e6577206f776e657220697320746865207a65726f206160408201526564647265737360d01b606082015260800190565b6020808252818101527f4f776e61626c653a2063616c6c6572206973206e6f7420746865206f776e6572604082015260600190565b60208082526013908201527234b739bab33334b1b4b2b73a10333ab732399760691b604082015260600190565b90815260200190565b600081600019048311821515161561068c57634e487b7160e01b81526011600452602481fd5b50029056fea26469706673582212201d636508e7bc55e25010270eeb8e37c5eca4562ae47184b6197a46068d86aba464736f6c63430008010033",
  "immutableReferences": {},
  "source": "pragma solidity >=0.6.0 <0.9.0;\r\n\r\nimport \"./YourToken.sol\";\r\nimport \"@openzeppelin/contracts/access/Ownable.sol\";\r\n\r\ncontract Vendor is Ownable{\r\n    //Token Contract\r\n    YourToken yourToken;\r\n\r\n\r\n    //Token price per ETH;\r\n    uint256 public tokensPerEth = 100;\r\n\r\n    event BuyTokens(address buyer, uint256 ethAmount, uint256 tokenAmount);\r\n\r\n    constructor(address tokenAddress){\r\n        yourToken = YourToken(tokenAddress);\r\n\r\n    }\r\n\r\n\r\n    function buyTokens() public payable returns (uint256 tokenAmount) {\r\n\r\n            require(msg.value == 1, \"You need atlest 1 ETH to buy some tokens.\");\r\n\r\n            uint256 amountToBuy = msg.value * tokensPerEth;\r\n\r\n            //Check if the vendor contract has enough tokens for the the transaction\r\n\r\n            uint256 vendorBalance = yourToken.balanceOf(address(this));\r\n\r\n            require(vendorBalance >= amountToBuy, \"insufficient funds.\");\r\n\r\n            //Transfer token to the user\r\n            (bool sent) = yourToken.transfer(msg.sender, amountToBuy);\r\n\r\n            require(sent, \"error transferring token to user.\");\r\n\r\n            emit BuyTokens(msg.sender, msg.value, amountToBuy);\r\n\r\n            return amountToBuy;\r\n    }\r\n    \r\n\r\n    function withdraw() public onlyOwner{\r\n        uint256 ownerBalance = address(this).balance;\r\n        require(ownerBalance > 0, \"insufficient funds.\");\r\n\r\n         payable(msg.sender).transfer(address(this).balance);\r\n\r\n        //require(sent, \"error withdrawing.\");\r\n    }\r\n\r\n\r\n    \r\n}\r\n",
  "sourcePath": "D:\\HP ENVY 15\\MY PROJECT\\WEB\\SOLIDITY\\erc20-token\\contracts\\Vendor.sol",
  "compiler": {
    "name": "solc",
    "version": "0.8.1+commit.df193b15.Emscripten.clang"
  },
  "schemaVersion": "3.4.4",
  "updatedAt": "2022-04-28T13:29:22.363Z",
  "devdoc": {
    "kind": "dev",
    "methods": {
      "owner()": {
        "details": "Returns the address of the current owner."
      },
      "renounceOwnership()": {
        "details": "Leaves the contract without owner. It will not be possible to call `onlyOwner` functions anymore. Can only be called by the current owner. NOTE: Renouncing ownership will leave the contract without an owner, thereby removing any functionality that is only available to the owner."
      },
      "transferOwnership(address)": {
        "details": "Transfers ownership of the contract to a new account (`newOwner`). Can only be called by the current owner."
      }
    },
    "version": 1
  },
  "userdoc": {
    "kind": "user",
    "methods": {},
    "version": 1
  }
}